0000300111111112012-11-10VIGENTE        CONSORCIO 1 ARCHIVO 1           011-4222-2221CALLE 1 NRO 1                 12345678
0000300222222222013-11-10VIGENTE        CONSORCIO 1 ARCHIVO 2           011-4222-1222CALLE 2 NRO 1                 02030490
0000300222222232014-11-10VIGENTE        CONSORCIO 2 ARCHIVO 2           011-4222-2222CALLE 2 NRO 2                 00238477
0000300222222242012-11-10OTRO           CONSORCIO 3 ARCHIVO 2           011-4222-3222CALLE 2 NRO 3                 00112987
0000300311111112013-11-10SIN CONFIRMAR  CONSORCIO 3 ARCHIVO 1           011-4222-2223CALLE 1 NRO 3                 12121212
0000300333333332012-10-10VIGENTE        CONSORCIO 1 ARCHIVO 3           011-4221-2222CALLE 2 NRO 3                 00000001
0000300333333352016-11-10--ERROR--ENE-- CONSORCIO 3 ARCHIVO 3           011-4223-2222CALLE 2 NRO 3                 00000000